:020000040000FA
:10000000E009002069020000830200008502000070
:1000100087020000890200008B020000000000003F
:100020000000000000000000000000008D02000041
:100030008F0200000000000091020000A91A0000D9
:10004000950200009502000095020000A11A000030
:100050009502000000000000000000000000000009
:1000600000000000000000000000000095020000F9
:100070009502000095020000950200009502000024
:100080009502000095020000950200009502000014
:10009000950200009502000095020000000000009B
:1000A000BD0700009502000000000000950200005E
:1000B000950200009502000000000000950200007B
:1000C0000000000095020000000000009502000002
:1000D00095020000351C0000451C0000551C000066
:1000E0000000000000000000000000009502000079
:1000F00000000000950200000000000095020000D2
:1001000000000000950200000000000095020000C1
:10011000651C000095020000950200009502000099
:100120009502000095020000950200009502000073
:1001300095020000950200000000000095020000FA
:1001400095020000950200009502000000000000EA
:100150009502000095020000950200009502000043
:1001600095020000000000000000000000000000F8
:10017000000000000000000000000000000000007F
:1001800000000000950200000000000000000000D8
:10019000000000000000000000000000000000005F
:1001A0000000000000000000950200009502000021
:1001B00095020000950200009502000095020000E3
:1001C00000F012F800F046F81FB502F095FC1FBDD4
:1001D00010B510BD03B4FFF7FBFF03BC02F004F839
:1001E00000000000000000000AA090E8000C82441B
:1001F0008344AAF10107DA4501D100F02BF8AFF2F0
:10020000090EBAE80F0013F0010F18BFFB1A43F0F4
:1002100001031847742E0000942E0000103A24BFEA
:1002200078C878C1FAD8520724BF30C830C144BF5B
:1002300004680C607047000000230024002500269D
:10024000103A28BF78C1FBD8520728BF30C148BF39
:100250000B60704700F094F81146FFF7B5FF02F00D
:100260002BFB00F0B2F800000E48016821F4803149
:1002700001600D484FF4803101600C4880470C4804
:100280000047FEE7FEE7FEE7FEE7FEE7FEE7FEE7E4
:10029000FEE7FEE7FEE7000006480749074A084B6D
:1002A0007047000004F0014000F00140211C0000F4
:1002B000C1010000E0030020E0090020E00500206B
:1002C000E0050020704710B5203AC0F00B80B1E87F
:1002D0001850203AA0E81850B1E81850A0E818507B
:1002E000BFF4F5AF5FEA027C24BFB1E81850A0E884
:1002F000185044BF18C918C0BDE810405FEA827C9E
:1003000024BF51F8043B40F8043B08BF7047D207B4
:1003100028BF31F8023B48BF11F8012B28BF20F855
:10032000023B48BF00F8012B70474FF0000200B5B8
:10033000134694469646203922BFA0E80C50A0E808
:100340000C50B1F12001BFF4F7AF090728BFA0E8B6
:100350000C5048BF0CC05DF804EB890028BF40F882
:10036000042B08BF704748BF20F8022B11F0804FC4
:1003700018BF00F8012B70477047704770477047EF
:10038000754600F02BF8AE4605006946534620F04E
:100390000700854618B020B5FFF77EFFBDE8204076
:1003A0004FF000064FF000074FF000084FF0000B31
:1003B00021F00701AC46ACE8C009ACE8C009ACE8E4
:1003C000C009ACE8C0098D46704710B50446AFF3CC
:1003D00000802046BDE81040FFF7FCBE0048704793
:1003E0008003002070477047704710B50A48446A80
:1003F000446204F00C0010B12046FFF7F3FF04F450
:10040000046010B12046FFF7EEFF04F4E02010B1C5
:100410002046FFF7E9FF10BD00F00140704770472C
:1004200070477047704770470146086801233422BF
:100430005354426802F001022AB900E000BF8A7EEC
:10044000222AFBD009E0426822F0010242604268A1
:1004500022F00402426010228A767047016801236C
:10046000282213544A68C2F340022AB900E000BFB0
:10047000427E212AFBD00CE04A6822F002024A6048
:1004800000E000BF4A69C2F38012002AF9D01022AE
:100490004276704710B50446607E212804D0A07EC5
:1004A000222801D0012010BD607E212802D12046E3
:1004B000FFF7D4FFA07E222802D12046FFF7B4FF29
:1004C0000020F0E710B50446607E212801D001200D
:1004D00010BD2046FFF7C2FF0020F9E710B5044623
:1004E000A07E222801D0012010BD2046FFF79CFFEE
:1004F0000020F9E710B50446607E212804D0A07ED4
:10050000222801D0012010BD607E212802D1204682
:10051000FFF7A4FFA07E222802D12046FFF784FF28
:10052000E06C10B12046E16C88470020EBE710B585
:100530000446607E212801D0012010BD2046FFF72F
:100540008DFF206D10B12046216D88470020F4E713
:1005500010B50446A07E222801D0012010BD2046FF
:10056000FFF762FF606D10B12046616D8847002083
:10057000F4E701688A69704770B5044625686868C1
:1005800020F00200686010206076606C10B1204698
:10059000616C884770BD70B50446266800250CE084
:1005A000216A481C206208783060E08C401EE0849C
:1005B000681CC5B2012D00D102E0E08C0028EFD10B
:1005C00000BFE08C10B92046FFF7D6FF70BD70B5B4
:1005D00004462568686820F001006860686820F0BB
:1005E000040068601020A076A06C10B12046A16CB9
:1005F000884770BD70B504462568002611E028685C
:10060000C1B2E26A501CE0621170608E401E6086CA
:10061000701CC6B2686900F0010008B1082E00D154
:1006200002E0608E0028EAD100BF608E10B920463B
:10063000FFF7CDFF70BD2DE9F041044626687569CE
:10064000C5F3400020B1E06940F00B00E06116E026
:10065000C5F3800020B1E06940F00C00E0610EE0DD
:10066000C5F3C00020B1E06940F00E00E06106E093
:10067000C5F3001018B1E06940F01200E061306885
:10068000C7B2A06D10B12046A16D8847BDE8F081CA
:1006900070B504462568AE6821E0C6F342001349F0
:1006A000086008460068072816D2DFE800F0110D40
:1006B0000904151508002046FFF7BDFF0DE000BF37
:1006C0002046FFF797FF08E02046FFF764FF04E0AD
:1006D0002046FFF74EFF00E000BF00BFAE6806F007
:1006E000010080F001000028D7D170BD0C0000206F
:1006F00010B504460020E06294F83000024A52F837
:1007000020102046884710BD100000207047704719
:10071000704770B50446102084F83D00217901200F
:10072000884021684968084008B1012000E00020A5
:1007300068B16568206880680121A9400843216884
:100740008860002020642046E16C884735E02079ED
:100750001030012101FA00F02168C968084008B191
:10076000012000E0002078B1656800202064206846
:10077000006905F1100101228A40104321680861D7
:100780002046616D884718E0217901208840216862
:10079000C968084008B1012000E0002068B1656820
:1007A0000B202064206801690120A84001432068D3
:1007B00001612046216D884700BF70BD10B5024819
:1007C000FFF796FF10BD0000F401002072B600BFD5
:1007D000FEE7000070B5044600254CF2503000F0F2
:1007E000F1F805460DB902488465284670BD000041
:1007F0000010600070B5044600254CF2503000F047
:10080000E1F805469DB90B48006820F0FF0009306B
:10081000084908600846006820F4407000F58070C0
:10082000086008464460006C40F0010008642846F7
:1008300070BD00000010600070B5044600254CF249
:10084000503000F0BFF8054625B90348806D00F030
:1008500001002070284670BD0010600070B505468C
:1008600000244CF2503000F0ADF80446E4B90F48D3
:10087000006820F0FF00C01D0C49086008460068B1
:1008800020F4407008600846006C40F001000864E5
:100890004CF2503000F096F804460CB1204670BD82
:1008A0000248C068000C28702046F8E7001060007D
:1008B00070B5054600244CF2503000F083F8044631
:1008C000E4B90F48006820F0FF0009300C490860C7
:1008D0000846006820F4407008600846006C40F04C
:1008E000010008644CF2503000F06CF804460CB182
:1008F000204670BD4FF4C000006828602046F8E72D
:100900000010600010B5044600221146204600F099
:1009100015F8002010BD10B50446224600210846F7
:1009200000F00CF8002010BD10B50446002221464E
:10093000104600F003F8002010BD00002DE9F0473C
:1009400004460E4617464FF000084FF4C0094CF21B
:10095000503000F037F880460620144908600846F9
:10096000006C40F0010008644CF2503000F02AF8AE
:100970008046B8F1000F15D11FB10C48C068000EB9
:1009800038601EB10948C068000C307054B10020B6
:1009900020606060002503E019F8010B60556D1CB4
:1009A000082DF9D34046BDE8F08700000010600034
:1009B0000248C06880B20249C861704700106000F8
:1009C0006002002070B50446002500201649C86169
:1009D00000F09AF9054609E0601C38B124B100F036
:1009E00093F9401BA04201D9012070BD0F48806CD3
:1009F00000F001000028EFD10C48006D00F001006C
:100A000018B10120094908650BE00848006D00F0A5
:100A1000020030B1FFF7CCFF022004490865012035
:100A2000E3E70020E1E70000600200200010600022
:100A300001480078704700004C00002010B50446C3
:100A4000202060722068006820F00400001D2168EA
:100A50000860002021684860204600F023F800204C
:100A60006072E06000BF207200BF10BD10B5044688
:100A7000607A90B900BF0020207200BF204600F0CD
:100A80001FF821792068006861F30100216808607F
:100A9000102060720020E06010BD0220E0600120A4
:100AA000FAE700000549496EC1F3004129B1034945
:100AB000496E21F48031014A5166704700F00140CF
:100AC0000849496EC1F3004159B90649496E21F4FC
:100AD000803101F58031034A51664FF48031024A7A
:100AE0001160704700F0014018F801400146086CA1
:100AF000704770477047034600BF93F83C000128D9
:100B000001D102207047012083F83C0000BF052975
:100B10000ED2DFE801F007090B0305009A6508E033
:100B2000DA6506E0DA6404E01A6502E05A6500E07E
:100B300000BF00BF00BF002083F83C0000BF00BF23
:100B4000E0E70000024600BF92F83C00012801D116
:100B500002207047012082F83C0000BF06291ED207
:100B6000DFE801F0090C0F0306121148906516E04A
:100B70001048D06513E01048D06410E00F481065AD
:100B80000DE00F4850650AE0094890650948D065B6
:100B90000948D064094810650948506500BF00BF86
:100BA00000BF002082F83C0000BF00BFD1E700007A
:100BB000F50A0000F30A0000110700000F0700000B
:100BC0000D07000010B500F053F9002010BD70B5FE
:100BD00004460125207800F00800082803D1606A47
:100BE000FFF708FE0546207800F01000102804D119
:100BF00094F82800FFF7EEFD0546284670BD10B5B5
:100C000004460D20206004F10C00FFF77BFE04F188
:100C10001800FFF789FE04F11C00FFF77CFE04F1C9
:100C20002000FFF71BFE04F12400FFF741FE04F152
:100C30002800FFF701FE10BD2DE9F74F0E461546BF
:100C400096FAA6F0B0FA80F9009801F02DFA00F0BB
:100C5000FF0A0AEB090000EB4000124901EB800497
:100C6000012000FA05FBA06800EA0B0008B901208A
:100C700000E0002010B10120BDE8FE8F207905FAC8
:100C800000F721791F2000FA01F82068006820EAA7
:100C900008002168086020680068384321680860FF
:100CA0000020E9E75C2B000070B50446207800F0D6
:100CB000010008B1656803E011480068C0F34215FF
:100CC00025B1022D04D0042D08D103E00D4B08E01E
:100CD0000C4B06E000F0D8F9034602E04FF6FF7334
:100CE00000BF00BF207800F0020008B1A66804E051
:100CF00003480838006800F0070623FA06F070BDC4
:100D00000CF80140001BB700014800687047000064
:100D10000000002001480068704700000400002027
:100D2000034800680349097808440149086070478E
:100D3000000000200800002010B50F2000F024F86B
:100D400000F004F800F095F8002010BD00B58BB05D
:100D50000B48006AC0F3006020B14FF4005009490D
:100D6000886102E00020074988611020009001207E
:100D70008DF828006846FFF72AFF0BB000BD000081
:100D800000F00140600200202DE9F047044600F029
:100D9000D3FE334800784FF47A71B1FBF0F031495B
:100DA0000968B1FBF0F5681EB0F1807F01D3012026
:100DB0000FE0681E4FF0E02148610F214FF0FF3037
:100DC00000F09AFF00204FF0E021886107200861C1
:100DD000002010B10120BDE8F087102C3BD200BFED
:100DE00021480068C0F30220054628462246002319
:100DF0000146C1F10708B8F1040F02D94FF0040809
:100E000001E0C1F10708C44601F10408B8F1070F79
:100E100002D24FF0000801E0A1F1030847464FF06D
:100E2000010808FA0CF8A8F1010808EA020808FA13
:100E300007F84FF0010909FA07F9A9F1010909EAD0
:100E4000030948EA090631464FF0FF3000F054FF2D
:100E50000648046001E00120BDE70020BBE7000078
:100E600008000020500000200CED00E004000020ED
:100E7000704770472DE9F0438BB004462C225B4944
:100E80006846FFF720FA4FF000085948006A20F042
:100E9000805000F1805056490862207800F003002D
:100EA00000B32046FFF700FF5249B0FBF1F6684659
:100EB000FFF7A5FE0998B04212D2082000900996CB
:100EC0006846FFF784FE18B101200BB0BDE8F0833F
:100ED0006846FFF794FE0998B04203D00120F4E77A
:100EE0004FF00108207800F00100F8B1606820B9E7
:100EF00041480068C0F3400078B16068022804D11E
:100F00003E480068C0F3001038B16068042806D17C
:100F10003748006BC0F3400008B90120D5E72179BC
:100F20003348006B61F34710314908633248001FB2
:100F3000056833480543207800F0020018B125F019
:100F40000705A0680543207800F0040020B125F0D3
:100F50003805E06845EAC005207800F0080020B1B7
:100F600025F4E075206945EA80152348001F0560D7
:100F700000F03EFD207800F0010090B1FFF7C4FEC4
:100F8000074606E0FFF7C0FEC01B642801D9032016
:100F90009BE71948001D0068C0F342106168884251
:100FA000F0D1B8F1000F10D00820009009966846E3
:100FB000FFF70DFE08B1012087E76846FFF71FFE27
:100FC0000998B04201D001207FE700F08BF80A4970
:100FD000091F096801F00701C8400A490860FFF7C6
:100FE00099FE8146FFF7D0FE00206EE7302B00000F
:100FF00000F0014040420F0008F801400CB10140F0
:101000000000FA5A5000002000B500F031F8034902
:101010000968C1F3C201C84000BD000004F80140E6
:1010200000B500F025F803490968C1F38211C840F2
:1010300000BD000004F801400F2101600B49096860
:10104000C1F34211416009490839096801F00701FB
:101050008160064908390968C1F3C201C1600349CA
:1010600008390968C1F38211016170470CF8014029
:1010700000B500F037F80349096801F00701C840DE
:1010800000BD000004F801404FF0FF310020134A7A
:101090001268C2F300120AB9114800E010480F4A62
:1010A0001268C2F3066250430C4A1268C2F301226E
:1010B00032B1012A06D0022A06D0032A08D105E05F
:1010C000202106E0102104E0082102E0042100E0D4
:1010D00000BF00BFB0FBF1F0704700000CF801400A
:1010E000001BB70000B500230A480068C0F3421097
:1010F00020B1022804D0042808D103E0064B06E002
:10110000054B04E0FFF7C0FF034600E000BF00BF4F
:10111000184600BD0CF80140001BB70070B504462E
:10112000207800F0040078B36068C8B98A48006885
:1011300000F0010020B188480068C0F3001020B121
:1011400085480068C0F3421008B9012070BD82488C
:10115000001F006820F001007F49091F08601BE0A4
:101160007D48001F006820F00100401C7A49091FDB
:101170000860FFF7C9FD054607E0FFF7C5FD401B06
:10118000642802D90320E1E706E07348001F0068E5
:10119000C0F340000028F0D0207800F002000028C2
:1011A0004DD0E068C8B96C48006800F0010020B17B
:1011B00069480068C0F3001028B967480068C0F3A8
:1011C0004210022801D10120C0E76448006820F0E5
:1011D00010006349C1F8080131E0012211036148A0
:1011E000FFF72AFD012251035E48FFF725FD5B480A
:1011F000006820F040005A49C1F808015A480068C8
:1012000020F030002030C1F8DC035448006820F0A2
:1012100010001030C1F80801FFF776FD054607E021
:10122000FFF772FD401BB0F5C87F01D903208DE7A1
:101230004A48001D0068C0F300100028F0D0207854
:1012400000F0010080B3A06880B94448083000680D
:1012500020F0080008304249C1F810010846D0F8D3
:10126000100120F00400C1F810012DE001229102CC
:101270003C48FFF7E1FC0122D1023A48FFF7DCFCD1
:1012800036480830006820F008003549C1F81001E0
:1012900032480830006820F00400001DC1F8100139
:1012A000FFF732FD054608E00EE0FFF72DFD401B7D
:1012B000B0F5487F01D9032048E728480830006886
:1012C000C0F300100028F0D0206980B922480068DF
:1012D000C0F34210042801D1012037E72348006BF6
:1012E00020F001002149086300F082FB32E0217DFB
:1012F0001E48006B61F304101C490863217F1B48E2
:10130000006B61F3092019490863217E1748006BBF
:1013100061F31E60154908630846006B20F0010068
:10132000401C08630846006A20F08050086200F004
:101330005FFBFFF7E9FC054606E0FFF7E5FC401B15
:10134000642801D9032001E70848006BC0F340007E
:101350000028F2D00020F9E60CF8014008B1014065
:1013600000B0014000A00340DCB3014000F00140A8
:101370007047704710B5044600BF94F82900012853
:1013800001D1022010BD012084F8290000BF20688F
:10139000006820F0010021680860606D08B9094804
:1013A00060652046616D8847204600F0D9FE2046E2
:1013B00000F0C6FE0020E06200BF84F8290000BFF4
:1013C00000BFDFE7051500007047000010B50446B8
:1013D00094F830004349085C00F0040018B9E06854
:1013E00008B1012010BD94F830003E49085C00F0BF
:1013F000080018B9A06808B10120F3E7207C002894
:1014000069D100BF94F82900012801D10220E9E741
:10141000012084F8290000BF206D08B932482065FA
:10142000606D08B931486065A06D08B93048A065A5
:10143000E06D08B92F48E065206E08B92E48206697
:10144000606E08B92D486066A06E08B92C48A06689
:101450002046216D8847204600F03EFE2020207463
:101460002068006840F002002168086094F83000AD
:101470001C49085C00F0040030B120680168E06895
:1014800041EA00102168086094F830001549085CB2
:1014900000F0080068B120680069A168084321686D
:1014A0000861A06828B12068806A40F008002168BF
:1014B0008862D4E9001088600020E0621020207467
:1014C000204600F087FF0F2060610020E06200BF2F
:1014D00084F8290003E00220E062012082E7002076
:1014E00080E70000922F000007150000051500009E
:1014F000591600005B160000711300007313000002
:10150000C91300007047704770B505460E46144673
:101510000020E862287C102801D0012070BD95F8D9
:10152000300000EB800101EBC000494901EB4000B5
:1015300010F8140000F0030008B90120EEE795F858
:1015400030004449085C00F0080030B130680128E0
:1015500003D0A86808B10120E0E7306801280FD067
:1015600095F8300000EB800101EBC000384901EB39
:10157000400010F8140000F0020008B90120CDE787
:1015800000BF95F82900012801D10220C6E70120FB
:1015900085F8290000BF22463146284600F05CFC51
:1015A0003068012826D1E10805F11C0050F821100F
:1015B000082C01D2204601E0A4F1080082000F208F
:1015C00090408143E20805F11C0040F82210E10838
:1015D00050F82110082C01D2204601E0A4F10800A7
:1015E0008200012090400143E20805F11C0040F810
:1015F000221025E0E10805F11C0050F82110082C0C
:1016000001D2204601E0A4F1080082000F209040A2
:101610008143E20805F11C0040F82210E10850F86F
:101620002110082C01D2204601E0A4F1080082001C
:10163000022090400143E20805F11C0040F822100E
:1016400000BF002085F8290000BF00BF66E700004A
:10165000A82E0000922F00007047704710B5044676
:1016600020206076206E08B90C4820662046216E46
:101670008847E06B18B10521E06BFFF763FA206C37
:1016800018B10521206CFFF75DFA0020E06160765B
:10169000A076A06300BF207600BF10BD75170000C4
:1016A00010B50446606900B100E000BF607E00280C
:1016B0003DD1204600F038FFE06D08B92648E065CE
:1016C0002046E16D8847E06B10B9206C002832D0CD
:1016D000E06BA0B1204600F001FF08B1012010BD71
:1016E0001E4A0021E06BFFF706FA1D4A0121E06B5C
:1016F000FFF701FA1B4A0221E06BFFF7FCF9206CAF
:10170000C8B1204600F0BBFE08B10120E7E7164A49
:101710000021206CFFF7EFF9144A0121206CFFF73C
:10172000EAF9134A0221206CFFF7E5F903E00220F1
:10173000E0610120D3E720206076204600F0C4FF5E
:1017400008B10120CBE70020E06110206076A07690
:101750000020A06300BFC2E799180000FD2400002C
:101760000F250000CB2400009F240000B1240000BE
:101770006D24000010B504463F49206888421AD104
:101780003E48406EC0F3001028B13C48406E20F047
:1017900010003A494866252000F06CFA252000F038
:1017A00077FA002204213648FFF746FA0022022188
:1017B0003348FFF741FA3349206888421AD12F484D
:1017C000006EC0F3001028B12C48006E20F010000D
:1017D0002A490866262000F04DFA262000F058FA23
:1017E000002208212848FFF727FA00220421264872
:1017F000FFF722FA2549206888421BD11F48006E56
:10180000C0F3401028B11D48006E20F020001B4995
:101810000866272000F02EFA272000F039FA00226F
:1018200040211B48FFF708FA002280211848FFF7E3
:1018300003FA10BD1749206888421BD10F48006E7B
:10184000C0F3801028B10D48006E20F040000B4915
:101850000866342000F00EFA342000F019FA002255
:1018600002210948FFF7E8F9002201210648FFF7A5
:10187000E3F9DEE700BFDCE70040024000F0014092
:1018800000A00340001001400090034000200140F0
:10189000008003400030014010B5044647492068ED
:1018A00088421ED1012204214548FFF7C5F90122D3
:1018B00002214348FFF7C0F94248406EC0F30010D0
:1018C00048B94048406E20F0100010303D4948664D
:1018D00010203D490860252000F0CCF9252000F0BB
:1018E000E9F93A49206888421FD101220821384885
:1018F000FFF7A2F9012204213548FFF79DF931488D
:10190000006EC0F3001050B92E48006E20F0100099
:1019100010302C49086610202B49091F086026202A
:1019200000F0A8F9262000F0C5F92A49206888426D
:101930001FD1012240212848FFF77EF90122802192
:101940002548FFF779F91F48006EC0F3401050B9E1
:101950001C48006E20F0200020301A490866202024
:101960001949091F0860272000F084F9272000F09A
:10197000A1F91A49206888421FD101220221144886
:10198000FFF75AF9012211461148FFF755F90D48A2
:10199000006EC0F3801050B90A48006E20F040007D
:1019A00040300849086640200749091F0860342074
:1019B00000F060F9342000F07DF910BD00400240D5
:1019C00000A0034000F0014018F801400010014061
:1019D000009003400020014000800340003001409F
:1019E0007047704710B50446204600F0CBFE10BD8E
:1019F00070B588B000240CE0A00000F1E020D0F821
:101A000000014DF824004FF0FF31234840F8241026
:101A1000641C082CF0D34FF0E0200569006920F029
:101A200002004FF0E02108611C48866A00201B4933
:101A30008862402048620846806A20F040004030BA
:101A40008862032000F047F91448006A20F0004043
:101A500000F10040114908620846006A20F0400089
:101A60004030086230BF0846006A20F0004008623B
:101A7000002407E05DF82410A00000F1E020C0F889
:101A80000011641C082CF5D34FF0E02005610348D9
:101A9000866208B070BD000080E100E000F0014007
:101AA00010B5FEF7A2FC10BD10B5FFF739F910BD57
:101AB00000B599B0202111A8FEF737FC14210CA81D
:101AC000FEF733FC0CA8FFF7B7FA0D9804280BD1EA
:101AD0002C22184901A8FEF7F6FB01A8FFF777F8BA
:101AE00008B1FEF773FE00BF06201190012012908E
:101AF000002014900120159000211691402117918B
:101B00000321189111A8FFF709FB08B1FEF75EFE4B
:101B10000F200C9004200D9000200E9002200F90BA
:101B2000012010900CA8FFF7A5F908B1FEF74EFEB2
:101B300019B000BD042B000010B5364B1B68C3F371
:101B40000662344B1B68C3F3421323B1022B06D049
:101B5000042B33D107E0304B304C236032E02E4B66
:101B60002E4C23602EE02B4B1B68C3F3001323B9CC
:101B7000294B5343294C236003E0274B5343274C05
:101B80002360244B1B68C3F3012333B1012B06D020
:101B9000022B06D0032B08D105E0202106E01021FE
:101BA00004E0082102E0042100E000BF00BF1B4B5D
:101BB0001B68B3FBF1F3194C236003E0164B174C81
:101BC000236000BF00BF134B083B1B6803F00703F3
:101BD000082B15D2DFE803F00406080A0C0E1012D9
:101BE00001200EE002200CE004200AE0082008E0BA
:101BF000102006E0202004E0402002E0802000E0E9
:101C000000BF00BF054B1B68B3FBF0F3034C236020
:101C100010BD00000CF80140001BB7005000002070
:101C20000348006840F470000149086070470000F4
:101C300088ED00E010B50248FEF72AFD10BD000057
:101C40005400002010B50248FEF722FD10BD000030
:101C5000B800002010B50248FEF71AFD10BD0000C4
:101C60001C01002010B50248FEF712FD10BD000057
:101C700080010020002807DB00F01F0201219140B5
:101C8000024A430942F823107047000080E200E056
:101C900000280BDB00F01F0201219140044A430998
:101CA00042F82310BFF34F8FBFF36F8F70470000D0
:101CB00080E100E000280DDB00BF00BF00F01F0244
:101CC000012191404209920002F1E022C2F8001184
:101CD00000BF00BF704700280DDB00BF00BF00F051
:101CE0001F02012191404209920002F1E022C2F854
:101CF000001100BF00BF704710B5002804DB0A07C1
:101D0000130E054A135406E00A07140E034A00F0A6
:101D10000F031B1FD45410BD00E400E018ED00E0D9
:101D200070B504460D46206E10B12046216E8847DE
:101D300094F830102068082901D1702100E03C217E
:101D400040580121A940084394F830202168082A0E
:101D500001D1702200E03C22885070BD70B504466D
:101D60000D46606E10B12046616E884794F83010C1
:101D70002068082901D1702100E03C214058012150
:101D8000A940084394F830202168082A01D1702224
:101D900000E03C22885070BD30B54C68092A02D161
:101DA000036840330AE090F830500368082D01D1F1
:101DB0001C2500E018252B4403EB82031C600A233A
:101DC000B2FBF3F40368143353F8243090F8304036
:101DD00004EB840505EBC4041E4D05EB440434F804
:101DE0001240012505EB1425CC68AC4023430A249E
:101DF000B2FBF4F50468143444F825300A23B2FB2E
:101E0000F3F40368143353F8243090F8304004EBB3
:101E1000840505EBC4040F4D05EB440434F812406F
:101E2000022505EB14258C68AC4023430A24B2FB41
:101E3000F4F50468143444F8253055000324AC400C
:101E40008369A343836155000124AC408369234324
:101E5000836130BDA82E000070B504460E461546BD
:101E60003068092871D2DFE800F080050B0C0D8086
:101E700080797A002A4631462046FFF78DFF75E0CB
:101E800000BF00BF94F830102068082901D16421F8
:101E900000E0342140580021A940084394F8302044
:101EA0002168082A01D1642200E03422885094F885
:101EB00030102068082901D15C2100E03021415810
:101EC00094F83000082801D1680001E06800001D86
:101ED00003228240914394F830202068082A01D1DF
:101EE0005C2200E03022815094F8301020680829EC
:101EF00001D15C2100E0302142583068401E94F846
:101F00003010082901D1690001E06900091D8840ED
:101F1000024394F830102068082901D15C2100E0C8
:101F20003021425094F830102068082901D15821FE
:101F300000E0302140583169A940084394F830202E
:101F40002168082A02D1582201E00EE03022885090
:101F50002A4631462046FFF71FFF07E000BF2A460A
:101F60003146204600F004F800E000BF00BF70BD1D
:101F700070B504460E46154694F8301020680829BE
:101F800001D1642100E0342140580121A9400843D7
:101F900094F830202168082A01D1642200E034221C
:101FA000885094F830102068082901D1602100E0A1
:101FB0003421415894F83000082801D1680001E02C
:101FC0006800001D03228240914394F8302020686D
:101FD000082A01D1602200E03422815094F83010A8
:101FE0002068082901D1602100E03421425830687E
:101FF000401F94F83010082901D1690001E0690000
:10200000091D8840024394F830102068082901D146
:10201000602100E0342142502A4631462046FFF735
:10202000BBFE70BD70B504460D466069C10804F181
:102030001C0050F821106069082801D2606901E095
:102040006069083882000F209040084061690829C3
:1020500001D2616901E0616908398900C840C6B2EE
:10206000A06D10B12046A16D8847042E04D1E06D0B
:1020700010B12046E16D884794F830102068082997
:1020800001D1702100E03C2140580121A9400843C2
:1020900094F830202168082A01D1702200E03C2207
:1020A00088500F20606170BD01460848814201D10F
:1020B000002070470648814201D11520F9E7054804
:1020C000814201D12520F4E73520F2E7007003407A
:1020D000008003400090034070B50546002426E0D0
:1020E00005F1340050F82400F8B105F1340050F83F
:1020F00024008564062C08D105F1340151F8240030
:102100000C4A0021FEF7F7FC07E005F1340151F815
:102110002400094A0021FEF7EEFC05F1340151F8D4
:102120002400064A0121FEF7E6FC601CC4B2062C1E
:10213000D6D970BDA1220000B922000015230000ED
:102140000F214161002180F8281081610022C261C5
:10215000026224210A540021C16201747047000008
:102160000749016507494165074981650749C16517
:1021700007490166074941660749816670470000C3
:102180000715000005150000591600005B16000039
:102190007113000073130000C913000010B504464A
:1021A00094F830000F49085C00F0010008B90120E4
:1021B00010BD2068806A20F00800216888622068CD
:1021C000806A20F0040021688862102084F82800CA
:1021D000204600F0E3F810B9204600F049F800204E
:1021E000E6E70000922F00007047000010B504469B
:1021F00007220249204600F09DF810BD1C30000067
:1022000010B5044603220249204600F093F810BDA1
:102210003830000010B5044604220249204600F080
:1022200089F810BD4430000010B504462068007DD8
:1022300000F0010088B194F830102068082901D11D
:102240006C2100E03821405C00F0010028B1002042
:10225000606100212046FFF7E5FE10BD10B5044681
:102260000D220249204600F065F810BD54300000F0
:102270000168096821F001010268116001680968BC
:1022800041F002010268116000BF04490968C1F30E
:1022900040010029F9D1102101747047000002406B
:1022A00070B50546AC6C2046FFF778FF606E10B144
:1022B0002046616E884770BD70B50546AC6C606B9A
:1022C000A84202D1002060611CE0A06BA84202D1AC
:1022D0000120606116E0E06BA84202D1022060613B
:1022E00010E0206CA84202D1032060610AE0606C1B
:1022F000A84202D10920606104E0A06CA84201D18B
:102300000C206061E06D10B12046E16D88470F2020
:10231000606170BD70B50546AC6C10202074284615
:10232000FEF7E4FBE062A06E10B12046A16E884784
:1023300070BD00002DE9F04705460F469046002687
:1023400026E057F82640E1B228684058220A0121C9
:1023500091400840D0B195F830102868082901D183
:102360006C2100E038214058220C012191400840A6
:1023700060B1C4F30369C4F3074A200F68610648DB
:1023800050F8292051462846904700BF701CC6B21D
:102390004645D6DBBDE8F0873400002030B5024664
:1023A00092F82800202801D1012030BD00210CE046
:1023B0004D000324AC40906920404C00E040C3B283
:1023C000022B01D10120F0E7491C0C29F0D9002093
:1023D000EBE70000234B0168CA1A994222D00CDCBB
:1023E000B1F1804F2ED0204A114479B3B1F5F83FB6
:1023F00010D0B1F5003F32D110E0B2F5805F15D0BA
:10240000B2F5304F16D0B2F5404F17D0B2F5504F5D
:1024100025D120E0002180F8301021E0012180F852
:1024200030101DE0022180F8301019E0032180F8FF
:10243000301015E0042180F8301011E0052180F8FB
:1024400030100DE0062180F8301009E0FFE7072189
:1024500080F8301004E0082180F8301000E000BF60
:1024600000BF70470020024000F0FFBF70B5054676
:10247000AC6C1020A0762046E16C884770BD014608
:10248000086C006A10B9086C006B08B10120704735
:10249000086C806908B10120F9E70020F7E770B502
:1024A0000546AC6C1020A0762046A16C884770BD14
:1024B00070B50546AC6C1020A076E06940F01A00BB
:1024C000E0612046A16D884770BD70B50546AC6CD3
:1024D000102060762046E16C884770BD0146C86BCD
:1024E000006A10B9C86B006B08B101207047C86B57
:1024F000806908B10120F9E70020F7E770B50546CB
:10250000AC6C102060762046616C884770BD70B559
:102510000546AC6C10206076E06940F01A00E0617E
:102520002046A16D884770BD064941640649816413
:10253000064981650649C164064901650649416548
:1025400070470000E3190000E119000023040000B7
:10255000210400001F0400001D0400002DE9FF5F9E
:1025600080460C46D8F800504FF000090020039038
:102570005049681A8D421DD009DC4F48284480B16B
:10258000B0F5805F10D0B0F5005F19D10FE0B0F565
:10259000803F03D0B0F5883F12D10EE000200390B9
:1025A0000EE0012003900BE00220039008E00320DE
:1025B000039005E00420039002E00520039000BF93
:1025C00000BF3E48016803980A30C14001F0010A8B
:1025D000BAF1000F03D0FEF757FD814605E0BAF1CE
:1025E000000F02D1FEF744FD8146B4EB191F03D959
:1025F000012004B0BDE8F09F2001029009EB8900A2
:1026000041000298B1FBF0FB0A20BBFBF0F6BBFBDC
:10261000F0F100FB11B0052800D3761C3001B9FBA6
:10262000F0F7A74209D9381B4FF47A714843B0FB41
:10263000F4F01F280DD30120DBE7A74209D2E01BED
:102640004FF47A714843B0FBF4F01F2801D3012006
:10265000CFE7B9FBF6F00190012000901849D8F8B7
:102660000000884204D01749D8F80000884203D1FE
:10267000FEF7D6FC009002E0FEF7C6FC0090009842
:10268000C0EBC000C1000198814201D80120B0E731
:10269000E86820F080008030E8600120A860C6F380
:1026A00007206860F0B22860E86820F08000E860E9
:1026B00000209EE70040014000F0FEBF00F801400E
:1026C000004002400050024070B505462C680026CC
:1026D000A8680643E86846EA80062648844208D08F
:1026E0002548844205D02548844202D024488442AB
:1026F00025D16869D8B16869012804D1606840F0C3
:10270000100060601BE06869022804D1606840F036
:102710002000606013E06869032810D1606840F011
:1027200020006060606840F01000606007E0606852
:1027300020F020006060606820F010006060286970
:1027400010B926F008060BE046F0080628690128B3
:1027500002D146F0100603E02869022800D100BF2C
:10276000E66028466968FFF7F9FE08B1012070BDF0
:102770000020FCE700400240001001400020014022
:1027800000300140002107280AD2DFE800F00405EC
:102790000607080A0B0006E005E004E003E002E09B
:1027A00000BF00BF00BF00BF704710B500F0A2F827
:1027B00008B1012010BD00F001F908B10120F9E7CE
:1027C00000F016F908B10120F4E700F02BF908B188
:1027D0000120EFE700F040F908B10120EAE700F03E
:1027E0009BF808B10120E5E70020E3E72F480078D7
:1027F000072852D2DFE800F0041321413152530080
:102800002B48007818B901202A49087006E02848AA
:102810000078012802D103202649087040E02448AE
:102820000078022802D12349087005E0204800788A
:10283000032801D11F49087032E01D48007805289F
:1028400003D104201B49087006E0194800780428C9
:1028500002D103201749087022E0154800780728A4
:1028600003D105201349087006E0114800780628B6
:1028700002D105200F49087012E00D4800780928A0
:1028800003D105200B49087006E0094800780828A4
:1028900002D100200749087002E000BF00BF00BF5E
:1028A00000BF044800780149087070474C000020C0
:1028B0004E0000204D000020FEF73EFAFFF7F8F82A
:1028C000FFF773FF00B103E001E000F005F8FCE75B
:1028D00000F0DCF8FDF77AFF10B5FEF7A9F804491F
:1028E000087008460078FFF77DF8FFF77FFF10BDFE
:1028F0004400002010B506480649086000204860E2
:102900000846FEF7B3F808B1012010BD0020FCE72F
:1029100000800240E401002000B58FB02548264920
:102920000860BF204860002123488160C160FEF735
:102930004DFD10B101200FB000BD14210AA8FDF714
:10294000F4FC01200A90C8200B9000200D900C9000
:1029500000220AA91848FEF7D7FD08B10120EAE7CE
:10296000142105A8FDF7E1FC01200590C820069080
:10297000002008900790012205A90F48FEF7C4FD2A
:1029800008B10120D7E714216846FDF7CEFC0120ED
:1029900000904FF4FA600190012003900020029013
:1029A000092269460448FEF7AFFD08B10120C2E7DD
:1029B0000020C0E700000240F401002010B50A48E2
:1029C0000A4908604FF4E1304860032107488160FC
:1029D0000021C16001614161FEF762FE08B1012082
:1029E00010BD0020FCE70000004002405400002021
:1029F00010B50A480A4908604FF4E13048600321E5
:102A0000074881600021C16001614161FEF748FE15
:102A100008B1012010BD0020FCE7000000100140BB
:102A2000B800002010B50A480A4908604FF4E130A8
:102A300048600321074881600021C1600161416154
:102A4000FEF72EFE08B1012010BD0020FCE70000BB
:102A5000002001401C01002010B50A480A49086006
:102A60004FF4E13048600321074881600021C160D4
:102A700001614161FEF714FE08B1012010BD002084
:102A8000FCE70000003001408001002010B5144830
:102A9000FDF7D4FF08B1012010BD1248FEF7DEFD9E
:102AA00008B10120F8E71048FEF7D8FD08B1012071
:102AB000F2E70E48FEF7D2FD08B10120ECE70C4822
:102AC000FEF7CCFD08B10120E6E70A48FEF752FC0C
:102AD00008B10120E0E7FEF775F80020DCE7000010
:102AE000E401002054000020B80000201C01002058
:102AF00080010020F40100204FF04070E1EE100A48
:102B00007047000008000000000000000000000006
:102B100000000000000000000000000000000000B5
:102B20000000000000000000C000000000000000E5
:102B3000080000000000000000000000000000008D
:102B40000000000000000000000000000000000085
:102B500000000000000000000000000000B2014082
:102B600000000000CF7F110000B20140050000000E
:102B70007FFF150000B201400A0000001FFF150092
:102B80000000000000000000000000000000000045
:102B90000000000000000000000000000000000035
:102BA0000000000000000000000000000000000025
:102BB0000000000000000000000000000000000015
:102BC0000000000000000000000000000000000005
:102BD0000000000004B2014014000000DFFF030009
:102BE00004B2014019000000CFBF040008B2014048
:102BF000000000008BFD000008B20140050000004D
:102C0000C374000008B201400A000000AF74040061
:102C100008B201400F0000008B74010000000000AA
:102C200000000000000000000000000000000000A4
:102C30000000000000000000000000000000000094
:102C40000000000000000000000000000CB2014085
:102C50000A0000002150000010B2014000000000F6
:102C6000FFB7050010B2014005000000BF77070064
:102C700010B201400A000000FFBF070010B201407F
:102C80000F000000073D040010B2014014000000D6
:102C90008FFF050010B2014019000000BF7F010046
:102CA00014B20140000000001F73150014B201406F
:102CB000050000005F73030014B201400A00000029
:102CC000FF77050014B201400F000000FF1205005D
:102CD00014B2014014000000FF72070014B201405A
:102CE000190000001F78050018B201400000000024
:102CF000FFFF100018B2014005000000FFEF1000B8
:102D000018B201400A0000005F7F010018B20140C4
:102D10000F000000DD7F010020B201400000000034
:102D2000EFFA050020B2014005000000FFF907009E
:102D300020B201400A000000C3F9010020B20140A6
:102D40000F00000083B9040020B20140140000000D
:102D5000FFF3010020B2014019000000CF3314003E
:102D600024B2014000000000E7FF110024B201403E
:102D700005000000C7FB110024B201400A0000005A
:102D8000AFF9150024B201400F000000CFF9100088
:102D900024B20140140000000730010024B20140B9
:102DA000190000007FB0070028B2014000000000B9
:102DB00003B1010028B201400500000007B0010086
:102DC00028B201400A00000003F3010028B20140CC
:102DD0000F00000003F3040030B2014000000000C7
:102DE0008FA1010030B2014005000000FF21030067
:102DF00030B201400A000000FF21070030B201405C
:102E00000F000000FFA1010030B2014014000000DB
:102E1000FFA0150030B201401900000007000100BA
:102E200034B20140000000001F00030034B2014032
:102E3000050000000300000034B201400A00000059
:102E400041F0000034B201400F00000041F00000EA
:102E500034B20140140000000320000034B20140ED
:102E6000190000000320000038B2014000000000FB
:102E70001F00010038B20140050000001F000400DF
:102E80000400000007FC10000000000007FC100018
:102E900001000000FFFF000002000000FFFF000033
:102EA00003000000FF3F00007F007F037F067F09D3
:102EB00000000000000000000000011D00000000F4
:102EC0000000770077037706770900000000000014
:102ED00000000000011D00000000000077007703E3
:102EE0007706770900000000000000000000011DC7
:102EF0000000000000006F006F03000000000000F1
:102F00000000000000000000011D000000000000A3
:102F10006F006F03000000000000000000000000D0
:102F20000000011D00000000000077007703770615
:102F3000770900000000000000000000011D0000F3
:102F40000000000021000000000000000000000060
:102F50000000000000000000000000000000210050
:102F60000000000000000000000000000000000061
:102F70000000000000000000470047034706470923
:102F8000470C470F471247154718471B4700470391
:102F9000011D0F0D0D01090D0000000000D401D628
:102FA00002D803DA05400000042C00D401D602D870
:102FB00003DA05400000042C00D401D602D803DA5D
:102FC00005400000042C00D401D60000000003409E
:102FD0000000000000D401D6000000000340000003
:102FE000022C00D401D602D803DA05400000042CDC
:102FF00000180000000000000000000000000018A1
:1030000000000000000000000000000000000000C0
:103010000000000000000D4C000000001400000043
:10302000140301101406022014090330280204F1CD
:10303000141D0590E01E1FF214000000140301107F
:10304000141D03901400000014030110280202F163
:10305000141D039014000000140301101406022034
:1030600014090330140C0440140F055014120660A8
:103070001415077014180880141B099018000AA072
:1030800018030BB0181D0DC0A83000000000002070
:10309000540000001C020000FC300000540000201E
:1030A0008C09000038020000000000001000000041
:1030B0000100000000000000ED210000ED210000F3
:1030C000ED2100000122000015220000ED2100008A
:1030D00029220000292200005D2200002520000096
:1030E0005D1D0000211D0000800200200000000086
:0C30F0000003002000000A0000000000A7
:020000040007F3
:04DFFC005555AAAA23
:04000005000001C135
:00000001FF
